:020000040800F2
:1000000000280020990B00083D0B0008430B000856
:10001000490B00084F0B0008550B000800000000BA
:100020000000000000000000000000005B0B000862
:10003000670B000800000000730B00087F0B00082E
:10004000E10B0008E10B0008E10B0008E10B0008E0
:10005000E10B0008E10B0008E10B0008E10B0008D0
:10006000E10B0008E10B0008E10B0008E10B0008C0
:10007000E10B0008E10B0008E10B0008E10B0008B0
:10008000E10B0008E10B0008E10B0008E10B0008A0
:10009000E10B0008E10B0008E10B0008E10B000890
:1000A000E10B0008E10B0008E10B0008E10B000880
:1000B000E10B0008E10B000800000000E10B000864
:1000C000E10B00080000000000000000E10B000848
:1000D00000000000E10B0008E10B00080000000038
:1000E000E10B0008E10B0008E10B00080000000034
:1000F0000000000000000000000000000000000000
:0C01000000000000000000005FF808F1A3
:10010C0010B5054C237833B9044B13B10448AFF345
:10011C0000800123237010BD0C00002000000000A3
:10012C00EC19000808B5034B1BB103490348AFF3A6
:10013C00008008BD0000000010000020EC19000831
:10014C0080B500AF00F048FD00F007F800F040F873
:10015C0000F0E2FB0023184680BD80B590B000AFE4
:10016C0007F1180328220021184601F031FC3B1D31
:10017C0000221A605A609A60DA601A610223BB612D
:10018C000123BB621023FB6200237B6307F118037E
:10019C00184601F01DF80346002B01D000F090FC2E
:1001AC000F237B600023BB600023FB6000233B61BB
:1001BC0000237B613B1D0021184601F089FA0346A0
:1001CC00002B01D000F07CFC00BF4037BD4680BD49
:1001DC0080B586B000AF07F1080300221A605A60A0
:1001EC009A60DA60214B9B69204A43F004039361C7
:1001FC001E4B9B6903F004037B607B681B4B9B6964
:10020C001A4A43F008039361184B9B6903F00803E7
:10021C003B603B6800224FF6FE71154800F0C0FFB2
:10022C0000221F21134800F0BBFF4FF6FE73BB608A
:10023C000123FB6000233B6102237B6107F1080370
:10024C0019460B4800F032FE1F23BB600123FB60F4
:10025C0000233B6102237B6107F108031946054823
:10026C0000F024FE00BF1837BD4680BD00100240D0
:10027C0000080140000C014080B582B000AF7860EE
:10028C007B68092B00F29E8101A252F823F000BF7B
:10029C00C50200081303000861030008AF0300083F
:1002AC00FD0300084B040008E7040008990400084B
:1002BC00350500088305000800220221C34800F020
:1002CC006FFF00220421C14800F06AFF00220821C0
:1002DC00BE4800F065FF00221021BC4800F060FF12
:1002EC0000224FF40061B94800F05AFF00224FF48D
:1002FC008051B64800F054FF01224FF40051B3482E
:10030C0000F04EFF5EE101220221B04800F048FFF0
:10031C0000220421AD4800F043FF00220821AB4825
:10032C0000F03EFF01221021A84800F039FF012205
:10033C004FF40061A54800F033FF01224FF48051C7
:10034C00A24800F02DFF01224FF400519F4800F00D
:10035C0027FF37E1002202219C4800F021FF0022F8
:10036C0004219A4800F01CFF01220821974800F054
:10037C0017FF00221021954800F012FF00224FF4C5
:10038C000061924800F00CFF01224FF480518F481D
:10039C0000F006FF00224FF400518C4800F000FFE3
:1003AC0010E100220221894800F0FAFE002204210B
:1003BC00864800F0F5FE00220821844800F0F0FE8B
:1003CC0000221021814800F0EBFE01224FF4006165
:1003DC007E4800F0E5FE01224FF480517B4800F08E
:1003EC00DFFE00224FF40051784800F0D9FEE9E01E
:1003FC0001220221754800F0D3FE0022042173482B
:10040C0000F0CEFE00220821704800F0C9FE012247
:10041C0010216E4800F0C4FE01224FF400616B48BD
:10042C0000F0BEFE00224FF48051684800F0B8FE88
:10043C0000224FF40051654800F0B2FEC2E00022E9
:10044C000221624800F0ACFE012204215F4800F05A
:10045C00A7FE002208215D4800F0A2FE0022102118
:10046C005A4800F09DFE01224FF40061574800F0FD
:10047C0097FE00224FF48051544800F091FE002268
:10048C004FF40051514800F08BFE9BE000220221FA
:10049C004E4800F085FE002204214C4800F080FEFE
:1004AC0000220821494800F07BFE01221021474818
:1004BC0000F076FE01224FF40061444800F070FE1B
:1004CC0001224FF48051414800F06AFE01224FF4A2
:1004DC0000513E4800F064FE74E0002202213B48CB
:1004EC0000F05EFE01220421384800F059FE002283
:1004FC000821364800F054FE00221021334800F049
:10050C004FFE00224FF40061304800F049FE0022FB
:10051C004FF480512D4800F043FE00224FF400515F
:10052C002A4800F03DFE4DE000220221274800F051
:10053C0037FE00220421254800F032FE002208215B
:10054C00224800F02DFE00221021204800F028FE49
:10055C0000224FF400611D4800F022FE00224FF4EF
:10056C0080511A4800F01CFE00224FF4005117482D
:10057C0000F016FE26E000220221144800F010FEC6
:10058C0000220421114800F00BFE002208210F4824
:10059C0000F006FE002210210C4800F001FE0122A2
:1005AC004FF40061094800F0FBFD00224FF480512C
:1005BC00064800F0F5FD00224FF40051034800F00E
:1005CC00EFFD00BF00BF0837BD4680BD00080140ED
:1005DC0080B582B000AF78607B68092B00F2948103
:1005EC0001A252F823F000BF1D060008690600089E
:1005FC00B5060008010700084D0700089907000818
:10060C0031080008E50700087D080008C908000843
:10061C0000220121BE4800F0C3FD00220221BC488B
:10062C0000F0BEFD00220421B94800F0B9FD002203
:10063C000821B74800F0B4FD00221021B44800F0A6
:10064C00AFFD00224FF48041B24800F0A9FD012219
:10065C004FF40041AF4800F0A3FD55E10122012108
:10066C00AB4800F09DFD00220221A94800F098FD46
:10067C0000220421A64800F093FD01220821A44881
:10068C0000F08EFD01221021A14800F089FD01220D
:10069C004FF480419F4800F083FD01224FF400414C
:1006AC009C4800F07DFD2FE100220121984800F0CC
:1006BC0077FD00220221964800F072FD01220421F0
:1006CC00934800F06DFD00220821914800F068FD70
:1006DC00002210218E4800F063FD01224FF480416E
:1006EC008C4800F05DFD00224FF40041894800F079
:1006FC0057FD09E100220121854800F051FD00223F
:10070C000221834800F04CFD00220421804800F0B7
:10071C0047FD002208217E4800F042FD01221021F5
:10072C007B4800F03DFD01224FF48041794800F0F8
:10073C0037FD00224FF40041764800F031FDE3E034
:10074C0001220121724800F02BFD00220221704889
:10075C0000F026FD002204216D4800F021FD01224D
:10076C0008216B4800F01CFD01221021684800F0A4
:10077C0017FD00224FF48041664800F011FD002265
:10078C004FF40041634800F00BFDBDE00022012155
:10079C005F4800F005FD012202215D4800F000FDDC
:1007AC00002204215A4800F0FBFC00220821584882
:1007BC0000F0F6FC01221021554800F0F1FC00225B
:1007CC004FF48041534800F0EBFC00224FF4004101
:1007DC00504800F0E5FC97E0002201214C4800F065
:1007EC00DFFC002202214A4800F0DAFC002204213E
:1007FC00474800F0D5FC01220821454800F0D0FC08
:10080C0001221021424800F0CBFC01224FF4804120
:10081C00404800F0C5FC01224FF400413D4800F077
:10082C00BFFC71E000220121394800F0B9FC012223
:10083C000221374800F0B4FC00220421344800F0B7
:10084C00AFFC00220821324800F0AAFC0022102143
:10085C002F4800F0A5FC00224FF480412D4800F0F9
:10086C009FFC00224FF400412A4800F099FC4BE019
:10087C0000220121264800F093FC0022022124488A
:10088C0000F08EFC00220421214800F089FC00229B
:10089C0008211F4800F084FC002210211C4800F0A5
:1008AC007FFC00224FF480411A4800F079FC0022B2
:1008BC004FF40041174800F073FC25E000220121A1
:1008CC00134800F06DFC00220221114800F068FC76
:1008DC00002204210E4800F063FC002208210C4881
:1008EC0000F05EFC01221021094800F059FC0022A6
:1008FC004FF48041074800F053FC00224FF40041B4
:10090C00044800F04DFC00BF00BF0837BD4680BD59
:10091C00000C01400008014080B584B000AF0523F5
:10092C00FB600323BB6001222021644800F038FCEB
:10093C0000224021614800F033FC002280215F48F6
:10094C0000F02EFC00224FF480715C4800F028FC73
:10095C0000224FF40071594800F022FC01224FF4A0
:10096C008061564800F01CFC00237B607B68022BE6
:10097C0077D07B68022B00F390807B68002B03D030
:10098C007B68012B42D088E0FB68022B13D100223C
:10099C004FF48071494800F003FC01224FF40071C0
:1009AC00464800F0FDFB00224FF48061434800F004
:1009BC00F7FB0223BB60FB68002B69D100222021CE
:1009CC003E4800F0EDFB002240213C4800F0E8FBE3
:1009DC0001228021394800F0E3FB01224FF48071A1
:1009EC00364800F0DDFB00224FF40071334800F074
:1009FC00D7FB00224FF48061304800F0D1FB032379
:100A0C00FB600523BB6002237B6041E0FB68002B8D
:100A1C0040D101222021294800F0C2FB00224021B4
:100A2C00264800F0BDFB00228021244800F0B8FBD2
:100A3C0000224FF48071214800F0B2FB00224FF4E9
:100A4C0000711E4800F0ACFB01224FF480611B4882
:100A5C0000F0A6FB0523FB600323BB6000237B6037
:100A6C0018E0FB68002B17D100222021134800F05E
:100A7C0097FB01224021114800F092FB00228021BB
:100A8C000E4800F08DFB0223FB6001237B6003E02A
:100A9C0000BF02E000BF00E000BFFB68013BFB6051
:100AAC00F868FFF7E9FBBB68013BBB60B868FFF770
:100ABC008FFD4FF47A7000F0F1F857E70008014011
:100ACC0080B400AF72B600BFFEE7000080B485B002
:100ADC0000AF154B9B69144A43F001039361124B11
:100AEC009B6903F00103BB60BB680F4BDB690E4ACB
:100AFC0043F08053D3610C4BDB6903F080537B6074
:100B0C007B680A4B5B68FB60FB6823F0E063FB606F
:100B1C00FB6843F08063FB60044AFB68536000BFD2
:100B2C001437BD4680BC70470010024000000140E5
:100B3C0080B400AFFEE780B400AFFEE780B400AF36
:100B4C00FEE780B400AFFEE780B400AFFEE780B4F0
:100B5C0000AF00BFBD4680BC704780B400AF00BF83
:100B6C00BD4680BC704780B400AF00BFBD4680BCA2
:100B7C00704780B500AF00F075F800BF80BD80B441
:100B8C0000AF00BFBD4680BC70470000FFF7F7FF09
:100B9C000B480C490C4A002302E0D458C4500433CF
:100BAC00C4188C42F9D3094A094C002301E01360A4
:100BBC000432A242FBD300F0E7FEFFF7C1FA704704
:100BCC00000000200C000020301A00080C0000204F
:100BDC002C000020FEE7000080B500AF084B1B681E
:100BEC00074A43F010031360032000F02BF90F2089
:100BFC0000F008F8FFF76AFF0023184680BD00BF1D
:100C0C000020024080B582B000AF7860124B1A68A9
:100C1C00124B1B7819464FF47A73B3FBF1F3B2FB0A
:100C2C00F3F3184600F035F90346002B01D00123ED
:100C3C000EE07B680F2B0AD8002279684FF0FF304A
:100C4C0000F00BF9064A7B681360002300E00123D7
:100C5C0018460837BD4680BD000000200800002063
:100C6C000400002080B400AF054B1B781A46054BDE
:100C7C001B681344034A136000BFBD4680BC704719
:100C8C00080000202800002080B400AF024B1B6835
:100C9C001846BD4680BC70472800002080B584B043
:100CAC0000AF7860FFF7F0FFB8607B68FB60FB6813
:100CBC00B3F1FF3F05D00A4B1B781A46FB6813446F
:100CCC00FB6000BFFFF7E0FF0246BB68D31AFA686F
:100CDC009A42F7D800BF00BF1037BD4680BD00BF99
:100CEC000800002080B485B000AF78607B6803F00A
:100CFC000703FB600C4BDB68BB60BA684FF6FF0365
:100D0C001340BB60FB681A02BB68134343F0BF631C
:100D1C0043F40033BB60044ABB68D36000BF143794
:100D2C00BD4680BC704700BF00ED00E080B400AF52
:100D3C00044BDB681B0A03F007031846BD4680BC56
:100D4C00704700BF00ED00E080B483B000AF0346F5
:100D5C003960FB7197F90730002B0ADB3B68DAB27C
:100D6C000C4997F907301201D2B20B4483F80023D7
:100D7C000AE03B68DAB20849FB7903F00F03043B45
:100D8C001201D2B20B441A7600BF0C37BD4680BCA0
:100D9C00704700BF00E100E000ED00E080B489B0D6
:100DAC0000AFF860B9607A60FB6803F00703FB6181
:100DBC00FB69C3F10703042B28BF0423BB61FB6948
:100DCC000433062B02D9FB69033B00E000237B6153
:100DDC004FF0FF32BB6902FA03F3DA43BB681A40E7
:100DEC007B699A404FF0FF317B6901FA03F3D943D9
:100DFC007B680B40134318462437BD4680BC7047B4
:100E0C0080B582B000AF78607B68013BB3F1807F26
:100E1C0001D301230FE00A4A7B68013B53600F2189
:100E2C004FF0FF30FFF790FF054B00229A60044B08
:100E3C0007221A60002318460837BD4680BD00BF44
:100E4C0010E000E080B582B000AF78607868FFF702
:100E5C0049FF00BF0837BD4680BD80B586B000AFE6
:100E6C000346B9607A60FB7300237B61FFF75EFF7A
:100E7C0078617A68B9687869FFF790FF024697F94C
:100E8C000F3011461846FFF75FFF00BF1837BD46FD
:100E9C0080BD80B582B000AF78607868FFF7B0FF96
:100EAC00034618460837BD4680BD000080B48BB0A1
:100EBC0000AF7860396000237B6200233B6248E11D
:100ECC0001227B6A02FA03F3FB613B681B68FA6937
:100EDC001340BB61BA69FB699A4240F037813B68A9
:100EEC005B68A34A93425ED0A14A934275D8A14A4B
:100EFC00934258D09F4A93426FD89F4A934252D004
:100F0C009D4A934269D89D4A93424CD09B4A934246
:100F1C0063D89B4A934246D0994A93425DD8122B90
:100F2C002AD8122B59D801A252F823F0B30F00087B
:100F3C008D0F00089F0F0008E10F0008E70F000855
:100F4C00E70F0008E70F0008E70F0008E70F00089D
:100F5C00E70F0008E70F0008E70F0008E70F00088D
:100F6C00E70F0008E70F0008E70F0008E70F00087D
:100F7C00950F0008A90F0008824A934213D02CE069
:100F8C003B68DB683B6229E03B68DB6804333B620F
:100F9C0024E03B68DB6808333B621FE03B68DB689E
:100FAC000C333B621AE03B689B68002B02D1042394
:100FBC003B6213E03B689B68012B05D108233B6225
:100FCC007B68FA691A6109E008233B627B68FA695D
:100FDC005A6103E000233B6200E000BFBB69FF2BBA
:100FEC0001D87B6801E07B6804337B61BB69FF2B14
:100FFC0002D87B6A9B0002E07B6A083B9B003B614A
:10100C007B691A680F213B6901FA03F3DB431A4031
:10101C00396A3B6901FA03F31A437B691A603B682E
:10102C005B6803F08053002B00F09080564B9B695B
:10103C00554A43F001039361534B9B6903F0010341
:10104C00BB60BB68514A7B6A9B08023352F8233061
:10105C00FB607B6A03F003039B000F2202FA03F38D
:10106C00DB43FA681340FB607B68494A93420DD01E
:10107C007B68484A934207D07B68474A934201D128
:10108C00022304E0032302E0012300E000237A6A38
:10109C0002F0030292009340FA681343FB603B4951
:1010AC007B6A9B080233FA6841F823203B685B6833
:1010BC0003F48013002B06D0384B9A683749BB6970
:1010CC0013438B6006E0354B9A68BB69DB433349AD
:1010DC0013408B603B685B6803F40013002B06D055
:1010EC002E4BDA682D49BB691343CB6006E02B4BC2
:1010FC00DA68BB69DB4329491340CB603B685B680A
:10110C0003F40033002B06D0244B5A682349BB69E7
:10111C0013434B6006E0214B5A68BB69DB431F4904
:10112C0013404B603B685B6803F48033002B06D0A4
:10113C001A4B1A681949BB6913430B6006E0174B2D
:10114C001A68BB69DB43154913400B607B6A01339A
:10115C007B623B681A687B6A22FA03F3002B7FF4EC
:10116C00AFAE00BF00BF2C37BD4680BC704700BF80
:10117C00000032100000311000002210000021107D
:10118C00000012100000111000100240000001407D
:10119C0000080140000C0140001001400004014017
:1011AC0080B483B000AF78600B467B8013467B70B5
:1011BC007B78002B03D07A887B681A6103E07B88EC
:1011CC001A047B681A6100BF0C37BD4680BC70479F
:1011DC0080B586B000AF78607B68002B01D101230D
:1011EC006CE27B681B6803F00103002B00F0878026
:1011FC00924B5B6803F00C03042B0CD08F4B5B6899
:10120C0003F00C03082B12D18C4B5B6803F4803376
:10121C00B3F5803F0BD1894B1B6803F40033002BD3
:10122C006CD07B685B68002B68D1012346E27B683D
:10123C005B68B3F5803F06D1804B1B687F4A43F453
:10124C00803313602EE07B685B68002B0CD17B4BEA
:10125C001B687A4A23F480331360784B1B68774AF7
:10126C0023F4802313601DE07B685B68B3F5A02F2B
:10127C000CD1724B1B68714A43F4802313606F4B83
:10128C001B686E4A43F4803313600BE06B4B1B6896
:10129C006A4A23F480331360684B1B68674A23F453
:1012AC00802313607B685B68002B13D0FFF7ECFC8A
:1012BC00386108E0FFF7E8FC02463B69D31A642B5F
:1012CC0001D90323FAE15D4B1B6803F40033002BB7
:1012DC00F0D014E0FFF7D8FC386108E0FFF7D4FC3D
:1012EC0002463B69D31A642B01D90323E6E1534B25
:1012FC001B6803F40033002BF0D100E000BF7B68C7
:10130C001B6803F00203002B63D04C4B5B6803F0AB
:10131C000C03002B0BD0494B5B6803F00C03082B20
:10132C001CD1464B5B6803F48033002B16D1434B26
:10133C001B6803F00203002B05D07B681B69012B93
:10134C0001D00123BAE13D4B1B6823F0F8027B6806
:10135C005B69DB00394913430B603AE07B681B691E
:10136C00002B20D0364B01221A60FFF78DFC386120
:10137C0008E0FFF789FC02463B69D31A022B01D91E
:10138C0003239BE12D4B1B6803F00203002BF0D0D1
:10139C002A4B1B6823F0F8027B685B69DB0027494A
:1013AC0013430B6015E0264B00221A60FFF76CFC10
:1013BC00386108E0FFF768FC02463B69D31A022B40
:1013CC0001D903237AE11D4B1B6803F00203002BA8
:1013DC00F0D17B681B6803F00803002B3AD07B68C4
:1013EC009B69002B19D0174B01221A60FFF74CFC9C
:1013FC00386108E0FFF748FC02463B69D31A022B20
:10140C0001D903235AE10D4B5B6A03F00203002B55
:10141C00F0D0012000F09AFA1CE00A4B00221A606E
:10142C00FFF732FC38610FE0FFF72EFC02463B69F8
:10143C00D31A022B08D9032340E100BF001002404D
:10144C0000004242800442429E4B5B6A03F002035E
:10145C00002BE9D17B681B6803F00403002B00F020
:10146C00A6800023FB75974BDB6903F08053002BA0
:10147C000DD1944BDB69934A43F08053D361914B6C
:10148C00DB6903F08053BB60BB680123FB758E4B9B
:10149C001B6803F48073002B18D18B4B1B688A4A92
:1014AC0043F480731360FFF7EFFB386108E0FFF73C
:1014BC00EBFB02463B69D31A642B01D90323FDE0F5
:1014CC00814B1B6803F48073002BF0D07B68DB68C6
:1014DC00012B06D17B4B1B6A7A4A43F00103136242
:1014EC002DE07B68DB68002B0CD1764B1B6A754AB0
:1014FC0023F001031362734B1B6A724A23F004033B
:10150C0013621CE07B68DB68052B0CD16D4B1B6AEE
:10151C006C4A43F0040313626A4B1B6A694A43F03A
:10152C00010313620BE0674B1B6A664A23F001034D
:10153C001362644B1B6A634A23F0040313627B68D7
:10154C00DB68002B15D0FFF79FFB38610AE0FFF733
:10155C009BFB02463B69D31A41F28832934201D974
:10156C000323ABE0574B1B6A03F00203002BEED0B6
:10157C0014E0FFF789FB38610AE0FFF785FB0246B0
:10158C003B69D31A41F28832934201D9032395E087
:10159C004C4B1B6A03F00203002BEED1FB7D012B9D
:1015AC0005D1484BDB69474A23F08053D3617B68F4
:1015BC00DB69002B00F08180424B5B6803F00C036D
:1015CC00082B61D07B68DB69022B46D13F4B002294
:1015DC001A60FFF759FB386108E0FFF755FB02462C
:1015EC003B69D31A022B01D9032367E0354B1B68E7
:1015FC0003F00073002BF0D17B681B6AB3F5803FBE
:10160C0008D1304B5B6823F400327B689B682D4912
:10161C0013434B602B4B5B6823F474127B68196A81
:10162C007B685B6A0B43274913434B60274B0122B2
:10163C001A60FFF729FB386108E0FFF725FB02462B
:10164C003B69D31A022B01D9032337E01D4B1B68CE
:10165C0003F00073002BF0D02FE01C4B00221A601B
:10166C00FFF712FB386108E0FFF70EFB02463B69FF
:10167C00D31A022B01D9032320E0124B1B6803F071
:10168C000073002BF0D118E07B68DB69012B01D1D2
:10169C00012313E00B4B5B68FB60FB6803F48032A7
:1016AC007B681B6A9A4206D1FB6803F470127B6854
:1016BC005B6A9A4201D0012300E0002318461837D8
:1016CC00BD4680BD001002400070004060004242E8
:1016DC0080B584B000AF786039607B68002B01D195
:1016EC000123D0E06A4B1B6803F007033A689A4267
:1016FC0010D9674B1B6823F0070265493B681343FD
:10170C000B60634B1B6803F007033A689A4201D0E5
:10171C000123B8E07B681B6803F00203002B20D088
:10172C007B681B6803F00403002B05D0594B5B68E6
:10173C00584A43F4E06353607B681B6803F008036A
:10174C00002B05D0534B5B68524A43F460535360F3
:10175C00504B5B6823F0F0027B689B684D49134348
:10176C004B607B681B6803F00103002B40D07B6847
:10177C005B68012B07D1474B1B6803F40033002B2C
:10178C0015D101237FE07B685B68022B07D1414BAD
:10179C001B6803F00073002B09D1012373E03D4B50
:1017AC001B6803F00203002B01D101236BE0394BC2
:1017BC005B6823F003027B685B68364913434B601C
:1017CC00FFF762FAF8600AE0FFF75EFA0246FB6880
:1017DC00D31A41F28832934201D9032353E02D4BA3
:1017EC005B6803F00C027B685B689B009A42EBD150
:1017FC00274B1B6803F007033A689A4210D2244B1C
:10180C001B6823F0070222493B6813430B60204BF3
:10181C001B6803F007033A689A4201D0012332E0B7
:10182C007B681B6803F00403002B08D0194B5B6822
:10183C0023F4E0627B68DB68164913434B607B68DA
:10184C001B6803F00803002B09D0124B5B6823F4D0
:10185C0060527B681B69DB000E4913434B6000F040
:10186C0021F802460B4B5B681B0903F00F030A4976
:10187C00CB5C22FA03F3094A1360094B1B68184628
:10188C00FFF7C0F9002318461037BD4680BD00BFD6
:10189C000020024000100240041A00080000002042
:1018AC000400002080B487B000AF0023FB6000234D
:1018BC00BB6000237B6100237B6000233B611E4BDC
:1018CC005B68FB60FB6803F00C03042B02D0082B55
:1018DC0003D027E0194B3B6127E0FB689B0C03F01E
:1018EC000F03174AD35C7B60FB6803F48033002B37
:1018FC0010D0114B5B685B0C03F00103114AD35CF5
:10190C00BB607B680D4A02FB03F2BB68B2FBF3F3CE
:10191C007B6104E07B680C4A02FB03F37B617B690F
:10192C003B6102E0054B3B6100BF3B6918461C372D
:10193C00BD4680BC704700BF0010024000127A0008
:10194C00141A0008241A000800093D0080B485B060
:10195C0000AF78600A4B1B680A4AA2FB03235B0AA0
:10196C007A6802FB03F3FB6000BFFB685A1EFA6047
:10197C00002BF9D100BF00BF1437BD4680BC7047A7
:10198C0000000020D34D621070B500260C4D0D4C9C
:10199C00641BA410A64209D100F022F800260A4DBF
:1019AC000A4C641BA410A64205D170BD55F8043B2B
:1019BC0098470136EEE755F8043B98470136F2E7B5
:1019CC00281A0008281A0008281A00082C1A0008DF
:1019DC0003460244934200D1704703F8011BF9E718
:1019EC00F8B500BFF8BC08BC9E467047F8B500BF00
:0819FC00F8BC08BC9E467047D0
:101A040000000000000000000102030406070809AA
:101A140002030405060708090A0B0C0D0E0F10102B
:041A240001020000BB
:041A28003101000880
:041A2C000D010008A0
:0C1A300000127A0010000000010000000D
:0400000508000B994B
:00000001FF
